:020000040800F2
:10000000C006002079020008691D0008751A000862
:10001000651D0008450C00088D1D0008000000004B
:10002000000000000000000000000000711D00083A
:10003000490C0008000000006D1D0008751D000837
:10004000930200089302000893020008930200083C
:10005000930200089302000893020008930200082C
:10006000930200089302000893020008930200081C
:10007000930200089302000893020008930200080C
:100080009302000893020008930200080000000099
:1000900000000000000000000000000093020008C3
:1000A00093020008930200089302000893020008DC
:1000B00093020008930200089302000893020008CC
:1000C00093020008930200089302000893020008BC
:1000D0009302000893020008930200080000000049
:1000E0009302000893020008930200080000000039
:1000F0000000000000000000000000009302000863
:100100000000000093020008930200089302000818
:1001100000000000000000000000000000000000DF
:10012000930200089302000893020008930200085B
:100130009302000800000000000000000000000022
:100140000000000000000000000000009302000812
:10015000930200089302000893020008930200082B
:100160009302000893020008000000000000000055
:10017000000000000000000000000000000000007F
:1001800000000000930200080000000000000000D2
:100190009302000800F002F800F05FF814A696E859
:1001A000000CB244B344DA4501D100F056F8BAE885
:1001B0000F000FA696E83000A5EB040504EB060738
:1001C000AAEB0704A7F101074FEA15154FEA34140B
:1001D000A4F10104AC4201D300F03FF813F0010F89
:1001E00018BFFB1A43F0010300F001F8DBE71847E2
:1001F000142A0000342A0000103A24BF78C878C1BD
:10020000FAD8520724BF30C830C144BF04680C601C
:1002100070470000704700000023002400250026DE
:10022000103A28BF78C1FBD8520728BF30C148BF59
:100230000B607047662902F09184002070471FB55B
:1002400002F07FFC00F088FB04000020002102F097
:10025000EBFBE0601FBD10B510BD00F07DFC11464A
:10026000FFF7EDFF01F094FD00F09BFC03B4FFF7F6
:10027000F2FF03BC00F0DEFC094880470948004754
:10028000FEE7FEE7FEE7FEE7FEE7FEE7FEE7FEE746
:10029000FEE7FEE704480549054A064B70470000A3
:1002A000791D000895010008C0000020C00600204C
:1002B000C0020020C002002053EA020C00F0698056
:1002C0002DE9F04B4FF00006002B1FBFB3FA83F56A
:1002D00003FA05F424FA05F65E4012BF1643B2FA9B
:1002E00082F502FA05F4C5F120051EBF22FA05FCCD
:1002F00044EA0C04203556EA044C4FEA144418BF73
:10030000641C4FF000084FF00009904271EB030CA1
:1003100039D3002919BFB1FA81F701FA07F6B0FA0B
:1003200080F700FA07F6C7F120071EBF20FA07FC86
:1003300046EA0C062037B6FBF4FCA7EB0507103F96
:1003400007F01F0BCBF120062CFA06F60CFA0BFB7C
:1003500044BFB3460026202FA4BF5E464FF0000BDB
:100360005BEA060C08BF4FF0010B19EB0B0948EBD9
:100370000608ABFB027C06FB02CC0BFB03CCC01BCC
:1003800071EB0C01C1E70B46024641464846BDE809
:10039000F08B13B5084318BF4FF0FF300146AFF3A1
:1003A0000080BDE81C4070470FB41CB50C0007AAC4
:1003B000009007D04142A14202D32044401E01E0F8
:1003C0004FF0FF30074B7B4469460190069800F0E0
:1003D000A8FA0020002C01D0009908701CBC5DF820
:1003E00014FB00007F0500002DE9F0474FF0000AE4
:1003F00089460446C0F820A02046E16888470028C6
:1004000076D0252806D0D4E901219047206A401CE7
:100410002062F1E7E168204600258847C4F81CA067
:1004200006460027C4F818A02A2E09D0304602F04C
:10043000F3FA38B304EB8708303EC8F8186019E0C7
:1004400059F8041B204604EB87029161E168884754
:10045000012F064618D1E069002820DA25F0200592
:100460001DE0D8F8180000EB800006EB40003038A3
:10047000C8F818002046E1688847064602F0CCFA22
:100480000028EED1012F0AD02E2E08D12046E16897
:1004900088477F1C0646022F45F02005C4DBA06973
:1004A000002803DA404245F00105A061E80701D0C9
:1004B00025F01005B6B1A6F14100192802D8203662
:1004C00045F400654A463146204625604D46FFF713
:1004D000B1FE58B1012806D0ED1D25F0070000F14E
:1004E000080989E704E005F1040985E730468AE751
:1004F000206ABDE8F0877047704770472DE9FF4FCD
:100500000C461E464FF0FF378BB0D2E90001DDF8F4
:1005100060800A908A46C1F30A5505B93D4600211C
:1005200008464FF00000BAF1000F00F4400005DA71
:1005300000EB80004FF4400101EA50004FEA90596F
:10054000B9F1010F00DDB9460A9850EA4A000ED011
:1005500044F61050A5F2FF3545432F14B8F1000FB3
:100560001ED07542291E1EDDC9F100021CE0B8F143
:10057000010F4FF0000001D0302103E0F24305E00D
:100580002154401CB042FBDB3046002200212154A4
:100590000B99C1F80880C1E900200FB0BDE8F08FC9
:1005A000BD1B6D1CDEE74A4600DA694206A800F072
:1005B0005DFA06AB93E8070003AB83E807005046FB
:1005C0000A9901F049FE8DE80700A0F500501F3898
:1005D00000900398002D0ADD42F21F014A460844AC
:1005E000002303A90390684602F0B2F809E0A0F5E1
:1005F00000504A461F38002303A90390684602F0C2
:10060000BCF88DE807000004000C03D04FF0FF3069
:10061000410800E01046B8F1000F03D0002200921C
:1006200015461EE0751E05D400F09AF93032625569
:100630006D1EF9D5B3460122084302D000227F1C6B
:1006400004E02078302801D100227F1E002A09977B
:1006500084D01DE0112D07DA00F082F930326255A6
:100660006D1C50EA0102F5D1084302D00098C8B1D0
:100670000EE00021681E05E0235C625C6354225496
:10068000401E491C8142F7DBAB46A81B401E099067
:10069000002004F80B000B98099AC0F80880C0E904
:1006A000002B7AE711264FF0000857E72DE9F04FAD
:1006B00088460446D21D22F0070191B0D1E900011D
:1006C000CDE90A0102F090F902460B98C00F01D063
:1006D0002D2007E02068810701D52B2002E0202192
:1006E00001EAC000032A099001D0072A05DB03466E
:1006F0004146204600F07AF90BE12078800601D5CA
:10070000E06900E00620B8F1650F814606D0B8F137
:10071000660F18D0B8F1670F70D131E00020B9F141
:10072000110F009001DB112301E009F101030AAA76
:1007300001A90CA8FFF7E2FEDDE90C70002609F123
:100740000105834647E001204B4600904FF00047EB
:100750000AAA01A90CA8FFF7D1FEDDE90DB00C999A
:100760005D46002610B909F101000D18B9EB05002E
:1007700003D4C0F1FF3609F10105A5EB09002BE018
:10078000B9F1010F01DA4FF001090020B9F1110FA1
:100790000090484601DD112300E003460AAA01A9A2
:1007A0000CA8FFF7ABFEDDE90C704D460026834632
:1007B000207800070AD4AB4500DA5D4601A8012D78
:1007C00004DD411911F8011C302907D04F4502DA28
:1007D00017F1040F04DA012082460FE06D1EEEE7E8
:1007E000002F02DCED1B3E4403E0781CA84200DD34
:1007F0007D1CB81B00F1010A4FF00047207800076C
:1008000003D4AA4501DB4FF0FF3A0021B7F1004FB6
:100810000DF143088DF8431024D002202B23002F24
:1008200001DA7F422D230A21021EA0F1010000DC23
:100830005FB197FBF1FC97FBF1F201FB1C7C1746C3
:100840000CF1300C08F801CDEEE7A8F101000370BF
:100850002188090501D5452100E06521A0F10108A5
:1008600000F8011C09980FA9A1EB0807FF1D00B1B2
:100870000120411901EBEA70A1693844081A401EB1
:10088000A0612078C00602D42046AFF3008009980A
:1008900028B1D4E901219047206A401C20622078C9
:1008A000C00622D52046AFF300801EE0002E04DBF8
:1008B000B34502DD01A8805D00E03020D4E90121CC
:1008C0009047206A401C2062761CAAF101005FEA72
:1008D000000A0AD100F040F8C0680168405CD4E921
:1008E00001219047206A401C2062281EA5F10105C5
:1008F000DCDC07E0D4E9012118F8010B9047206AFD
:10090000401C2062381EA7F10107F3DC2046AFF33C
:100910000080032011B041E601694A1C0261087899
:10092000704700B58FB0CDE901310021059105492F
:100930007944CDE9031011466846FFF755FD0FB025
:1009400000BD0000E5FFFFFFD1E900239A4202D27B
:10095000531C0B6010707047004870473000002037
:1009600030B5B0F10A0271F100034FEA900E4EEA81
:10097000817EB0EB0E0061EB91014FEA101E4EEA52
:10098000017E10EB0E0041EB11114FEA102E4EEAE2
:10099000016E10EB0E0041EB11214FEA104E4EEAB2
:1009A000014E10EB0E0041EB1141401841F10001E6
:1009B0004FEAD00040EA41704FEAD1014FEA81048A
:1009C00044EA907410EB800544EB01046D1944EB8C
:1009D0000404521BA3414FF0000348BF0A3200D564
:1009E00030BD401C41F1000130BD00002DE9F04157
:1009F0001F46044603260168072A01F4006004DB51
:100A000008B116A505E016A503E008B115A500E09C
:100A100015A521F010002060A069C01EA0610FB1D3
:100A2000401EA0612046AFF300804FB1D4E9012100
:100A300038469047206A401C2062C01C206206E0B5
:100A4000206AFAE7D4E9012115F8010B9047761ED8
:100A5000F8D22046AFF30080BDE8F0814E414E0051
:100A60006E616E00494E4600696E66002DE9F047E2
:100A7000814616468AB0354878440DC88DE80D0089
:100A800032487844801C03AC0DC884E80D0041F660
:100A90009B300844372190FBF1F290FBF1F5A5F172
:100AA000800501FB12041B3C02D56442012000E0DA
:100AB0000020DFF898A080460027FA44AAF1BE0A79
:100AC0000EE0E0070AD03246684607EB47010123F3
:100AD0000AEB810101F051FE8DE8070064107F1CD4
:100AE000002CEED1194F7F44AE3F19E0E80715D036
:100AF00007EB04100DF1180A90E80E008AE80E00CA
:100B0000C068F04201D1981908903246012306A925
:100B100003A801F032FE03AB83E807006D10641CEC
:100B2000002DE3D14FF0010332466946B8F1000FC2
:100B300003A802D001F00CFE01E001F01EFEC9E99D
:100B40000001C9F808200AB0BDE8F0876021000064
:100B500000487047100000207546FFF7F9FFAE46C9
:100B600005006946534620F00700854618B020B5B9
:100B7000FFF790FBBDE820404FF000064FF0000764
:100B80004FF000084FF0000BAC46ACE8C009ACE8F1
:100B9000C009ACE8C009ACE8C00921F007018D46E6
:100BA000704710B50446AFF300802046BDE8104002
:100BB000FFF75CBB0000000030B44FF0013C50F880
:100BC000042B51F8043BCCFA52F4D51A20D1FCB9CD
:100BD00050F8042B51F8043BCCFA52F4D51A17D133
:100BE000B4B950F8042B51F8043BCCFA52F4D51A9E
:100BF0000ED16CB950F8042B51F8043BCCFA52F4E6
:100C0000D51A05D1002CDAD030BC4FF00000704767
:100C100029BAB1FA81F111F01801D1F12000844014
:100C2000F2D1CA40CB4012F0FF0213F0FF0330BCF8
:100C3000D01A704701491820ABBEFEE7260002001B
:100C400070470000FEE700007047000070B581B0FB
:100C50000022009290F83C20012A03D1022001B02A
:100C600070BD00BFD1F800E001221FFA8EFC4FEAF0
:100C70004C0380F83C200EEB4E0213FA8EF3102446
:100C8000BEF1090F88BFA3F11E0288BF0C240368C0
:100C900007251E59954026EA05051D518D681E59E8
:100CA00005FA02F232431A514968062906D801EBC7
:100CB00081014A1F194651F8345F0EE00C2901EBFF
:100CC000810105D8A1F12302194651F8305F04E0F3
:100CD000A1F14102194651F82C5F1F24944025EAE6
:100CE00004040C600CFA02F20C6842F2043CC4F2F8
:100CF000010C2243ACF54174A3420A603ED1BEF11F
:100D0000120F07D1DCF8001041F48001CCF800107C
:100D100034E000BF2EF0010110292FD1DCF80010C3
:100D2000BEF1100F41F40001CCF8001026D140F2C2
:100D30000801C2F2000109684DF68362C4F21B3259
:100D4000A1FB0212910C01EB810149000091009975
:100D5000A1B1009901390091009979B10099013947
:100D60000091009951B1009901390091009929B180
:100D700000990139009100990029EAD1002180F8F9
:100D80003C10002001B070BD0068C06C70470000CE
:100D9000002804BF0120704710B5016C00293DD028
:100DA000016CC90645D4016C41F202129143023133
:100DB00042F204320164C4F20102116821F44031AC
:100DC0001160136890E812102343D0F810E013600C
:100DD0004A68012422F480724A604A68C0F60074AE
:100DE00042EA0E224A604A6822F040724A604A682B
:100DF00042EA0C024A608A6822F400628A60C26891
:100E00008B681A438A60826A8B68A24223F07063FF
:100E10008B608B6810D123F0405216E0044600F03E
:100E200065F820460021616484F83C10016CC90615
:100E3000B9D5012153E000BF1A438A608A6822F0C5
:100E400040528A60C26A8B681A438A608A6822F0BC
:100E500002028A608A68037E90F8204042EA4302D8
:100E60008A604A6884B142F400624A604A684EF27D
:100E7000000322F460424A60426ACFF6FF734C6876
:100E800003EB4232224301E022F400624A60CA6A64
:100E900040F2000C22F47002CA62C3694269CFF6C4
:100EA000F07CCC6A0CEB03532343CB628B6823F4B6
:100EB00000738B6090F830308C6844EA43238B6079
:100EC0008B6823F480638B608B6843EA82228A609C
:100ED00000214164026C012363F3010202640022D9
:100EE00080F83C20BDE810400846704780B586B0C9
:100EF00042F200010068C4F201010022884205921A
:100F0000CDE903220292019202D006B080BD00BF5B
:100F100043F630000092C4F20200436943F4807348
:100F20004361436903F480730093009B009203685C
:100F300043F001030360006800F001000090009896
:100F40000320CDE9010001F5604001A9039200F002
:100F500039F906B080BD000070B5044600680D4642
:100F60008268520544BF80685FEAC05038D400F000
:100F7000FFF921680A68920749D40646681C3CD0EC
:100F8000DDB90868800721D5086880073FD4086864
:100F900080071BD50868800739D40868800715D5F5
:100FA0000868800733D4086880070FD50868800771
:100FB000E7D52CE00868800729D400F0D9F9801B18
:100FC0002168A842F6D908688007F3D4206C40F065
:100FD00004002064002084F83C00032070BD00BFA2
:100FE000206C40F020002064002084F83C000120A8
:100FF00070BD00BF0868800709D40868800706D460
:10100000086880075CBF08685FEA8070F2D56FF0FF
:1010100012000860206C40F400702064886810F0B2
:10102000405F01D0002070BD207E0028FAD1C86A40
:1010300010F4700F02D088684005F3D4206C20F4BF
:1010400080702064206CC004ECD4206C40F001005F
:101050002064002070BD000010B581B00021009117
:1010600090F83C10012903D1022001B010BD00BF4F
:101070000468012180F83C10214651F8083FDB0745
:1010800029D10B684DF6836243F001030B6040F2F7
:101090000803C2F200031B68C4F21B32A3FB022345
:1010A0009A0C02EB42020092009AA2B1009A013A15
:1010B0000092009A7AB1009A013A0092009A52B1D5
:1010C000009A013A0092009A2AB1009A013A0092DD
:1010D000009A002AEAD10A68036CD2070CD143F0C7
:1010E0001001016400F1440101200A681043086006
:1010F000002001B010BD00BF40F2017223EA0202DD
:1011000002F5807202646268520504D5026C012304
:1011100063F30D320264026C4FF0000C0023D20422
:1011200044BF426C22F0060342F2000E436480F892
:101130003CC06FF02200C4F2010E2060DEF8040310
:10114000C00609D074450BD1DEF8080010F0405FEE
:1011500006D14FF08040C8E7086810F0405FF8D033
:10116000002001B010BD000090F83C10012904BF20
:101170000220704701688A6822F001028A6089684B
:10118000C90705D1016C41F201129143013101649B
:10119000002180F83C10002070470000B0B50446E4
:1011A00000F0E6F8054640F20000C2F200000078C8
:1011B000611C18BF044400BF00F0DAF8401BA042D5
:1011C000FAD3B0BD2DE9F04F83B000F1200200F159
:1011D0003E4741F20005009207F1FF77C4F2020595
:1011E00007224FEAB726A84208BF042200254FF085
:1011F00000084FF00009042E38BF4FEAB7220192D1
:101200000AE000BF09F1010908F10208B9F1100F65
:1012100005F1040500F0A2800F68012202FA09FE20
:1012200017EA0E0AEED0D1F804C003220CF003072F
:101230007E1E02FA08F4012E6FEA040B12D88468AD
:10124000CE6804EA0B0406FA08F634438460446866
:1012500024EA0E06CCF3001404FA09F4264346608F
:1012600004E000BF032F01D103271EE0C6688C688D
:1012700006EA0B0604FA08F42643022FC66014D1CE
:101280006FF00302009E02EA590756F807C005F006
:101290001C040F220B69A2402CEA0202A3401A434D
:1012A000F251D1F804C00CF00307026807FA08F302
:1012B00002EA0B021A431CF4403F0260A2D0002253
:1012C00043F644030292C4F202031A6843F6004450
:1012D00042F480421A601A68C4F2010402F48042A7
:1012E0000292029A29F003024FF6084C2244CFF6EC
:1012F000FF7C52F80C3005F00C070F26BE40B343BC
:10130000019E06FA07F73B4342F80C30A2684B688F
:1013100042EA0A0743F60C4CDE0258BF22EA0A07EB
:10132000A760C4F2010CDCF800209E0242EA0A0722
:1013300058BF22EA0A07CCF8007062689E0342EAAE
:101340000A0758BF22EA0A0767602268DB0342EAFD
:101350000A0758BF22EA0A07276053E703B0BDE82F
:10136000F08F0000002A08BF090481617047000067
:1013700040F2BC00C2F200000068704740F200007A
:1013800040F2BC01C2F20000C2F2000100780A681B
:10139000104408607047000080B543F60040C4F276
:1013A0000200016841F400710160016841F480614C
:1013B0000160016841F480710160032000F074F85D
:1013C0000F2000F005F800F027F8002080BD000095
:1013D00070B540F20006C2F2000640F20801327811
:1013E000C2F200014FF47A730968B3FBF2F20446CB
:1013F000B1FBF2F1084600F027FB0F2C4FF001057E
:1014000008D838B94FF0FF3021460022002500F0FF
:101410001FF87460284670BD82B0002043F640017A
:101420000190C4F202014A6842F480424A604A686C
:1014300002F480420192019A0090086840F08050C6
:101440000860086800F080500090009802B0704773
:1014500010B54EF60C5CCEF2000CDCF80030C3F395
:10146000022E8EF00704042C28BF0424BEF10303CF
:101470004FF0FF3E0EFA04F438BF0023A143994019
:101480000EFA03F39A43114300F00F0200F1604398
:101490000901043A03F564436244002848BF02F19D
:1014A0000C03197010BD00004EF60C51CEF2000175
:1014B0000A684FF6FF031A4060F30A2242F0806088
:1014C00040F0FD7008607047002804BF012070479D
:1014D0002DE9F04143F60808C4F202080446D8F8A2
:1014E000F8030D4600F00700814207D988F8F85349
:1014F000D8F8F80300F00700A84277D120688107E8
:1015000017D5410705D5D8F8001041F4E051C8F8C7
:101510000010010705D5D8F8001041F46041C8F863
:101520000010D8F80010A26821F0F0011143C8F8AB
:101530000010C00740D1D8F8F80300F0070085423A
:1015400007D288F8F853D8F8F80300F00700A8424B
:101550004CD12068410707D5D8F80010E26821F483
:10156000E0511143C8F80010000708D5D8F8000072
:10157000216920F4604040EAC100C8F8000000F092
:1015800055F8D8F8001042F6F432C1F30311C0F652
:101590000002515C40F2080220FA01F140F204001E
:1015A000C2F200000068C2F200021160FFF710FFF3
:1015B0000020BDE8F08100BF6068811E022907D2CB
:1015C00058F8081C89015CBF0120BDE8F08111E0DA
:1015D000012807D158F8081C89035CBF0120BDE829
:1015E000F08107E058F8081C890703D40120BDE802
:1015F000F08100BFD8F8001021F003010843C8F8BB
:101600000000FFF7B5FE064641F28837D8F8000023
:10161000616800F00C00B0EB810F8CD0FFF7A8FEE2
:10162000801BB842F2D90320BDE8F08110B543F623
:101630000404C4F202046168C1F3810142F2004073
:10164000C0F2F400DFE801F002040A0210BD00BF9E
:1016500047F64000C0F27D1010BD00BF2068216831
:101660002368490247F64001C0F27D1100F03F02B5
:10167000C3F388105CBF42F20041C0F2F401A1FB49
:1016800000010023FEF718FE21680222C1F3014188
:1016900002EB4101B0FBF1F010BD0000002804BFD7
:1016A000012070472DE9F04182B00446007843F6EE
:1016B0000006C007C4F202060CD0B06800F00C00AF
:1016C000042840F081803068800303D560680028DA
:1016D00000F06881207880071BD5B06810F00C0FEF
:1016E00009D0B06800F00C00082840F087807068CE
:1016F000400200F183803068800703D5E06801284C
:1017000040F050813068216920F0F80040EAC100C3
:1017100030602078000713D4207840072AD4A569C8
:10172000002D00F03A81B06800F00C00082840F06D
:10173000A580012D40F00E81012002B0BDE8F081AE
:101740006069002800F082800020C4F24720012157
:10175000C0F8801EFFF70CFE054600BF706F8007C3
:10176000DAD4FFF705FE401B0228F7D9032002B0A8
:10177000BDE8F081306C5FEAC0080AD40020019017
:10178000306C40F080503064306C00F0805001903C
:10179000019847F20007C4F200073868C00547D433
:1017A000386840F480703860FFF7E2FD054600BFFE
:1017B0003868C0053CD4FFF7DBFD401B0228F7D991
:1017C000032002B0BDE8F081B06800F00C000828EA
:1017D00003D1706840023FF576AF61683068B1F5BB
:1017E000803F07D0B1F5A02F40F09A8040F48020D0
:1017F0003060306840F4803030609AE0E068002863
:1018000040F20000C4F247205CD001210160FFF7E4
:10181000AFFD0546306880073FF574AFFFF7A8FDC0
:10182000401B0228F6D9032002B0BDE8F08100BFBA
:10183000A168306F012905D0052955D140F0040079
:101840003067306F40F00100306756E00020C4F28E
:1018500047200021C0F8801EFFF78AFD054600BF23
:10186000706F80077FF558AFFFF782FD401B02289D
:10187000F6D9032002B0BDE8F08100BF0027C4F212
:10188000472700203866FFF773FD022D05460DD16E
:101890003068800140F18A80FFF76AFD401B022812
:1018A0004FF00300F4D902B0BDE8F0813068800148
:1018B00073D5FFF75DFD401B02284FF00300F5D9FB
:1018C000F1E700BF00210160FFF752FD054600BFB0
:1018D000306880077FF51DAFFFF74AFD401B0228E7
:1018E0004FF00300F4D9DEE720F001003067306FDD
:1018F000002920F0040030677AD0FFF739FD054653
:1019000041F28837306F800700F18480FFF730FDA7
:10191000401BB842F6D9032002B0BDE8F08100BFF9
:1019200020F4803030603068002920F4802030605E
:101930007AD0FFF71DFD0546306880033FF5CAAE3B
:10194000FFF716FD401B6428F6D9032002B0BDE85E
:10195000F08100BF7068E16900F480028A4221D101
:10196000216A00F03F028A421CD147F6C071626AC8
:101970000140B1EB821F15D1A16A4FF6FF73C90375
:10198000994300F44032A1F580318A420AD1E16ADC
:1019900000F07060B0EB016F04D1002002B0BDE830
:1019A000F08100BF012002B0BDE8F08104F11C0508
:1019B0002FCD084340EA8210D9034FF6FF729143BE
:1019C000A1F5803140EA0560084370600120386667
:1019D000FFF7CEFC044600BF30688001DDD4FFF77E
:1019E000C7FC001B02284FF00300F5D95BE700BFDE
:1019F000FFF7BEFC054641F2883700BF306F800715
:101A000008D5FFF7B5FC401BB8424FF00300F5D9ED
:101A100049E700BFB8F1000F3FF581AE306C20F010
:101A2000805030647BE600BFFFF7A2FC054600BF94
:101A3000306880037FF54EAEFFF79AFC401B6428A8
:101A40004FF00300F4D92EE7411E0020B0EB116FD8
:101A50001CBF012070474EF21002CEF2000251600E
:101A60004EF62351CEF20001F0230B700721906057
:101A700011607047FEE7000010B53220FFF78EFBC3
:101A800040F20044C4F20204204610210122FFF774
:101A900069FC204620210122FFF764FC20464021FA
:101AA0000022FFF75FFC204680210022FFF75AFC4E
:101AB000204602210122FFF755FC0120FFF76EFBB3
:101AC000204602210022FFF74DFC0120FFF766FBB4
:101AD0000520FFF763FB204610210122FFF742FC9F
:101AE000204620210122FFF73DFC20464021002214
:101AF000FFF738FC204680210022FFF733FC204608
:101B000002210122FFF72EFC0120FFF747FB2046B0
:101B100002210022FFF726FC0120FFF73FFB0120F6
:101B2000FFF73CFB204610210122FFF71BFC20465B
:101B300020210122FFF716FC204640210022FFF75A
:101B400011FC204680210022FFF70CFC20460221D8
:101B50000122FFF707FC0120FFF720FB20460221AE
:101B60000022FFF7FFFB0120FFF718FB0120FFF722
:101B700015FB204610210022FFF7F4FB2046202110
:101B80000122FFF7EFFB204640210022FFF7EAFB8E
:101B9000204680210022FFF7E5FB2046022101229A
:101BA000FFF7E0FB0120FFF7F9FA204602210022AF
:101BB000FFF7D8FB0120FFF7F1FA0120FFF7EEFA5B
:101BC000282000F00FF80C2000F00CF8062000F0A0
:101BD00009F8012000F006F80220BDE81040FFF7E8
:101BE000DDBA0000B0B540F20044C4F2020405467C
:101BF000204601210022FFF7B5FBC5F30012204665
:101C00001021FFF7AFFBC5F3401220462021FFF75C
:101C1000A9FBC5F3801220464021FFF7A3FBEA0988
:101C200020468021FFF79EFB204602210122FFF77C
:101C300099FB0120FFF7B2FA204602210022FFF7AC
:101C400091FB0120FFF7AAFA05F0010220461021BE
:101C5000FFF788FBC5F3400220462021FFF782FBF7
:101C6000C5F3800220464021FFF77CFBC5F3C0028C
:101C700020468021FFF776FB204602210122FFF754
:101C800071FB0120FFF78AFA204602210022FFF7AC
:101C900069FB0120FFF782FA0220BDE8B040FFF7A0
:101CA0007DBA0000B0B540F20044C4F2020405461B
:101CB000204601210122FFF755FBC5F30012204603
:101CC0001021FFF74FFBC5F3401220462021FFF7FC
:101CD00049FBC5F3801220464021FFF743FBEA0988
:101CE00020468021FFF73EFB204602210122FFF71C
:101CF00039FB0120FFF752FA204602210022FFF7AC
:101D000031FB0120FFF74AFA05F0010220461021BD
:101D1000FFF728FBC5F3400220462021FFF722FBF6
:101D2000C5F3800220464021FFF71CFBC5F3C0022B
:101D300020468021FFF716FB204602210122FFF7F3
:101D400011FB0120FFF72AFA204602210022FFF7AB
:101D500009FB0120FFF722FA0120BDE8B040FFF7A0
:101D60001DBA0000FEE70000FEE70000704700001B
:101D700070470000FFF702BB4EF68850CEF200001D
:101D8000016841F47001016070470000FEE7000047
:101D90009AB040F20044C4F20204FFF7FDFA4FF497
:101DA00080001590082016904FF4A870179004201A
:101DB0001890072000274FF001084FF480390226C1
:101DC00019900EA8CDE91277CDE91077CDF83880BB
:101DD000CDF83C901496FFF761FC0F2009A9C1C112
:101DE0004FF480500DF1240BCDE90C075846022129
:101DF000FFF76AFB43F630001297CDE91077CDE983
:101E00000E770997C4F2020001680EAD41F001019E
:101E1000016001684FF0030A01F00101099109997D
:101E20000997016841F002010160016801F00201B7
:101E3000099109990997016841F010010160006852
:101E4000294600F0100009900998A4F58060CDF8AB
:101E50003880CDE90FA7FFF7B5F9F320CDE90E08DB
:101E600020462946CDE91077FFF7ACF9CDE90E6899
:101E700004F5406630462946CDE91077FFF7A2F910
:101E80002046F3210022FFF76DFA3046022100229E
:101E90000896FFF767FA40F27006C2F20006A4F552
:101EA0006440354645F8040F0120C0F60070C5E9CE
:101EB0000A07284611972F7685F82070C5F81C80F0
:101EC00085F83070C5E90197C5E90377C5F8148036
:101ED000FEF75EFF0EA880E880050DF1380A28465F
:101EE0005146FEF7B3FEFFF7C7FD0120FFF77AFE6C
:101EF0000220FFF753F98120FFF774FE2020FFF73F
:101F0000D1FE2020FFF7CEFE4220FFF7CBFE692056
:101F1000FFF7C8FE6520FFF7C5FE6E20FFF7C2FE83
:101F20007620FFF7BFFE6520FFF7BCFE6E20FFF7AF
:101F3000B9FE7520FFF7B6FE6520FFF7B3FE20203F
:101F4000FFF7B0FE2120FFF7ADFEC020FFF74AFEED
:101F50002020FFF7A7FE5320FFF7A4FE6120FFF724
:101F6000A1FE6C20FFF79EFE6C20FFF79BFE652014
:101F7000FFF798FE2020FFF795FE4320FFF792FE23
:101F80006F20FFF78FFE6D20FFF78CFE6D20FFF7AF
:101F900089FE7520FFF786FE6E20FFF783FE652021
:101FA000FFF780FE2020FFF77DFE40F6B830FFF7F8
:101FB000F5F80120FFF716FE0220FFF7EFF8ABF16E
:101FC000010007909FA04168AAF10107059181686F
:101FD0009FED908A0491C168007C9FED8F9A0290DA
:101FE00093A000F1080B039141689BE8000EB2EE4C
:101FF00004AAB3EE09BAB3EE02CA0691351D28460B
:10200000FFF72AF828464FF0FF31FEF7A5FF2846D4
:10201000FEF7BAFE1FFA80F82846FFF7A5F800EE93
:10202000108AB8EE400A80EE080A20EE090A80EE17
:102030000ADAB4EE4BDAF1EE10FA07DAB4EE4CDA63
:10204000F1EE10FA09DC002501E000BF0125089837
:1020500002212A46FFF786F935701DEE100A00F0BE
:10206000FFFC41EC100B09A811216CA28DED000BB7
:10207000FEF79AF9307838B16D480FA90E9006989E
:1020800081E8010E0BE000BF6E480E9005980F909E
:10209000049810900398119002988DF848002046FB
:1020A00001210022FFF75EF9204610210022FFF7F0
:1020B00059F9204620210022FFF754F920464021FB
:1020C0000022FFF74FF9204680210122FFF74AF94D
:1020D000204602210122FFF745F90120FFF75EF8B3
:1020E000204602210022FFF73DF90120FFF756F8B4
:1020F000204610210022FFF735F92046202100223A
:10210000FFF730F9204640210022FFF72BF9204647
:1021100080210022FFF726F9204602210122FFF745
:1021200021F90120FFF73AF8204602210022FFF7AB
:1021300019F90120FFF732F80220FFF72FF89DF878
:10214000240040B1079D00BFC0B2FFF7ABFDA878E7
:1021500001350028F8D1204601210022FFF702F9BD
:10216000204610210022FFF7FDF820462021002202
:10217000FFF7F8F8204640210122FFF7F3F8204648
:1021800080210122FFF7EEF8204602210122FFF70D
:10219000E9F80120FFF702F8204602210022FFF7AC
:1021A000E1F80120FEF7FAFF204610210022FFF798
:1021B000D9F8204620210022FFF7D4F820464021FC
:1021C0000022FFF7CFF8204680210022FFF7CAF84F
:1021D000204602210122FFF7C5F80120FEF7DEFFAD
:1021E000204602210022FFF7BDF80120FEF7D6FFAE
:1021F0000220FEF7D3FF56203D4600BFC0B2FFF7D6
:1022000051FDA87801350028F8D14FF47A70FEF717
:10221000C5FFF3E600F07F4500409C4554656D70B6
:102220003A20252E31662043202020200000000087
:1022300056656E74696C3A20204F4E202020202075
:102240000000000056656E74696C3A20204F4646C7
:1022500020202020000000005FEA400C08BF91F021
:10226000000F4FEA8C234FEAC12243EA51514FEA53
:102270001C5018BF00F5F0404FEA300018BF41F085
:1022800000415FEA6C5C00F02980BCF1FF3F08BFB1
:1022900040F080407047130C06BF12044FF0100C42
:1022A0004FF0000C130E04BF12020CF1080C130FB8
:1022B00004BF12010CF1040C930F04BF92000CF147
:1022C000020CD30F04BF52000CF1010C11464FF069
:1022D0000002A0F11F00A0EB0C00704711F0004FAE
:1022E00008BF704731F000413FF4D5AF0B0C06BF7B
:1022F00009044FF0100C4FF0000C0B0E04BF090244
:102300000CF1080C0B0F04BF09010CF1040C8B0F2E
:1023100004BF89000CF1020CCB0F04BF49000CF183
:10232000010CCCF1200322FA03F341EA030102FA83
:102330000CF2A0EB0C0000F10100704723F07F4786
:1023400020F07F4C80EA030000F00040ACEB070374
:1023500003F57C5303F1FF032DE9804909B44FEAEB
:10236000144324EA03484FEA154B25EA0B4E0FF2BB
:10237000042606EB13273E7803FB0667C7F5000724
:1023800007FB06F64FEAD64606F102064FEA543737
:1023900007FB066CCCF1005C4FEA1C472CEA074CAB
:1023A0000CFB06F507FB06F404EB15464FEA961600
:1023B00049085FEA320234BF00204FF000404FEA84
:1023C000D13706FB07FC4FEA1C4C0CFB0BF7D21B6A
:1023D00003FB0CF761EB07010CFB0EF7B0EB0740BA
:1023E00072EB17420CFB08F734BFA2EB0742B2EBCB
:1023F000074261EB17414FEA0C444FEA910706FB95
:1024000007FC4FEA1C4C0CFB0BF7B0EBC74072EB20
:10241000573203FB0CF734BFA2EBC742B2EBC74203
:1024200061EB57310CFB0EF7B0EBC70072EB577244
:102430000CFB08F734BFA2EBC702B2EBC70261EB9B
:1024400057714FEA816141EA92114FEA826242EA92
:1024500090124FEA806004EBCC04039F4FEAD1371F
:1024600006FB07FC4FEA1C4C0CFB0BF7D21B03FBD3
:102470000CF761EB07010CFB0EF7B0EB074072EBBA
:1024800017420CFB08F734BFA2EB0742B2EB07423E
:1024900061EB17414FEA8C5504EB9C244FEA9107FE
:1024A00006FB07FC4FEA1C4C0CFB0BF7B0EBC740DC
:1024B00072EB573203FB0CF734BFA2EBC742B2EB0F
:1024C000C74261EB57310CFB0EF7B0EBC70072EB64
:1024D00057720CFB08F734BFA2EBC702B2EBC7027E
:1024E00061EB57714FEA816141EA92114FEA8262D2
:1024F00042EA90124FEA806015EB4C2544F100044B
:102500004FEAD13706FB07FC4FEA1C4C0CFB0BF7DC
:10251000D21B03FB0CF761EB07010CFB0EF7B0EBD2
:10252000074072EB17420CFB08F734BFA2EB0742DF
:10253000B2EB074261EB17414FEA813141EA924128
:102540004FEA823242EA90424FEA80304FEA0C76FC
:1025500015EB1C1544F1000448EA03434EEA0B480E
:102560004FF0000EB2EB080C71EB030724BF62467C
:1025700039464EEB0E0E4FF0000B00185241494108
:102580004BEB0B0BB2EB080C71EB03077BF1000B71
:1025900024BF624639464EEB0E0E4FF0000B00187A
:1025A000524149414BEB0B0BB2EB080C71EB0307AB
:1025B0007BF1000B24BF624639464EEB0E0E51EA0A
:1025C000020718BF46F0010616EB0E7655F1000221
:1025D00054F1000103D5BDE88901BDE80088BDE8DC
:1025E0008901BDE80048B619524141EB0101A3F150
:1025F0000103704780807F7E7D7C7B7A7978777657
:1026000076757473727171706F6E6E6D6C6C6B6ACF
:102610006A6968686766666564646363626161606D
:10262000605F5F5E5E5D5D5C5C5B5B5A5A595958EA
:102630005857575656555555545453535252525154
:10264000515050504F4F4F4E4E4D4D4D4C4C4C4BAA
:102650004B4B4A4A4A4949494848484747474746F1
:10266000464645454544444444434343434242422D
:10267000424141419C46002B30D477002BD04FEA99
:1026800037071CB503B44FF010004FF01001BAF13A
:10269000000F06D0BCF1000FDCBF40F0080040F096
:1026A00008014FF000000FBCBDE810400BF1010B1A
:1026B000BBF1010F08BF5FEA170722BF12F1010249
:1026C00011F101014FF0004143F1000300F000401F
:1026D00043EA00007047F9D35708D0E746EA0646B8
:1026E0004FEA164613F1400F1FDD13F1200FDFBF35
:1026F00016430A46002120335B42BED0C3F12007B7
:1027000046EA06464FEA164602FA07F746EA070681
:1027100022FA03F2C3F1200701FA07F742EA07029F
:1027200021FA03F14FF00003A7E746EA020646EA62
:1027300006464FEA164646EA0106BCBF46EA06468A
:10274000360C4FF000034FF000024FF0000194E709
:102750002DE9804C70B49A46934691E8380007C83A
:1027600031EA400C48BF34EA430C03D5FFF7E6FDDD
:10277000FFF780FFF0BCBDE8008C2DE9804C70B401
:102780009A46934691E8380007C810F0804F08BF7A
:1027900013F0804F03D100F005F8FFF76BFFF0BC9A
:1027A000BDE8008C20F07F4723F07F4C80EA0300D7
:1027B00000F0004007EB0C03A3F57C53A3F1FE03EC
:1027C00092F0000F00F0B38095F0000F00F07780DA
:1027D0002DE901494FEA114021EA00484FEA144629
:1027E00024EA064700FB06FC08FB06F607FB08F890
:1027F00018EB06484CEB164C00FB07F718EB0748A4
:102800004CEB17404FEA124B22EA0B4E4FEA1546AB
:1028100025EA06470BFB06FC0EFB06F607FB0EFE41
:102820001EEB064E4CEB164C0BFB07F71EEB074E50
:102830004CEB174B18EB0B0840F1000018EB0E0B9C
:1028400058EB000840F100008F1A4FF000014FF0E4
:1028500000063CBFC943661B14BFB5EB040C002146
:102860003CBFC943F61B4FEA174427EA04454FEA29
:102870001C472CEA074C04FB076205FB07F70CFB1F
:1028800005F616EB074642EB174204FB0CFC16EB71
:102890000C4642EB1C421BEB060658EB0202414180
:1028A0004EEA8E0E46EA9E0601D5BDE80189B619AC
:1028B000524141EB0101A3F10103BDE801894FEA57
:1028C000144524EA05464FEA114721EA074C05FB67
:1028D00007F406FB07F70CFB06F111EB074144EB8D
:1028E000174405FB0CFC11EB0C4144EB1C444FEA74
:1028F000124722EA074C05FB07F206FB07F70CFB21
:1029000006F616EB074642EB174205FB0CFC16EBEE
:102910000C4642EB1C456A1854F1000148BF704751
:10292000B619524141EB0101A3F10103704795F043
:10293000000F37D04FEA114221EA02464FEA14470E
:1029400024EA074C02FB07F106FB07F70CFB06F431
:1029500014EB074441EB174102FB0CFC14EB0C4455
:1029600041EB1C414FEA154725EA074C02FB07F5EE
:1029700006FB07F70CFB06F616EB074645EB17457B
:1029800002FB0CFC16EB0C4645EB1C42121951F1F4
:10299000000148BF7047B619524141EB0101A3F154
:1029A000010370474FEA144524EA05464FEA1147F0
:1029B00021EA074C05FB07F106FB07F70CFB06F2C3
:1029C00012EB074241EB174105FB0CFC12EB0C42EA
:1029D00051EB1C414FF0000648BF7047921841EB85
:1029E0000101A3F10103704703B40198410000986D
:1029F00050EAC12018BF04204A0D18BF40F0010062
:102A000040F2FF72B2EB515F08BF40F002000128B4
:102A100008BF052002B0704730380A2801D20120D3
:102A2000704700207047000010B500290AD00878D0
:102A3000002807D005487844FEF7BEF8002801D0EA
:102A4000002010BD0248784410BD0000EE010000D7
:102A5000E60100000808A0F500114FEA31017047B7
:102A600043004FEAD30C4FEA3C0C43401FBF4007E2
:102A70000CF1605113F0FE4F70471CF0006F03D152
:102A80000CF00041002070470CF0004343EA507006
:102A900040EACC0010B500F00EF800BF0000009234
:102AA0004FEA0001FFF7D6BF4FF00041A1F500212A
:102AB0004FF0000070470EF1020E2EF0030E5EF88C
:102AC000044B244204D44FEA4102B2F17F4F11D8A3
:102AD0004FEA4003B3F17F4F0CD80ED14FEAD07CC0
:102AE0000CEB4C0C0CF1020CB2F17F4F08BF4CEB1D
:102AF000D17C04E04FF0080C01E04FEAD17C0CEBF4
:102B00004C0324FA03F404F00704B4F1040C06D2D5
:102B10000EEB840CBDE810404CF0010C6047DFE880
:102B20000CF0070802024FF00040A0F5800010BD35
:102B30000846420018BFD2F1807288BF00F0004002
:102B400010BDF1EE100A4FF6FF71C0F2C03120EA5D
:102B5000010040F04070E1EE100A7047FDF7A6BD9D
:102B600002400000000000A000000000054000003E
:102B7000000000C8000000000C4000000000409C65
:102B800000000000194000000020BCBE0000000052
:102B900034400000BFC91B8E00000004B540000097
:102BA000504BCFD06607E2CF010000006C4100001F
:102BB0003E8251AADFEEA73401000000D942000096
:102BC000DCB5A0E23A301F97FFFFFFFFB4450000DD
:102BD000FD25A0C8E9A3C14FFFFFFFFFFF3F000095
:102BE0000000008000000000FF3F000000000080A7
:102BF00000000000000000000000000001020304CB
:102C000006070809402C0008000000201000000002
:102C1000F8010008502C000810000020B006000049
:102C2000180200081C00000043000000F8FFFFFF2E
:102C30000C0000000E0000000F0000002E0000003D
:102C400001000000100000000024F400000000005B
:040000050800019559
:00000001FF
